:100000000EC028C0EFC026C095C1DBC023C022C0EF
:1000100021C020C01FC01EC01DC01CC01BC0112499
:100020001FBECFE5D1E0DEBFCDBF10E0A0E6B0E05F
:10003000E0EAF9E002C005900D92AE37B107D9F7BA
:1000400010E0AEE7B0E001C01D92A83AB107E1F7B9
:1000500088D1A4C4D5CF482FF894C19885E48A9557
:10006000F1F791E020E030E055E4892F842311F08E
:10007000C19A01C0C198852F8A95F1F7990F2F5F1A
:100080003F4F2830310589F7C19A85E48A95F1F709
:1000900078940895CF93DF93EC0102C02196DBDFC3
:1000A00088818823D9F7DF91CF9108951F93182F66
:1000B00082958F708A3008F0895D805DCCDF812F5A
:1000C0008F708A3008F0895D805DC5DF1F910895CB
:1000D000282F882319F0B898C09A02C0C098B89AFF
:1000E000BA98C29A88E0982F9A95F1F7C298BA9A6E
:1000F0008A95F1F7222311F0C098B89A88E08A9582
:10010000F1F70895B898C09ABA98C29A98E0892FE2
:100110008A95F1F786B3C298BA9A9A95F1F78170E9
:10012000089588B38A7F88BBBA98C29AB898C09A53
:1001300088E08A95F1F7089587B38A7F87BB88E0C6
:10014000982F9A95F1F7C098B89A982F9A95F1F749
:10015000C298BA9A8A95F1F70895BA98C29A88E037
:10016000982F9A95F1F7B898C09A8A95F1F7089563
:100170000F931F93082F10E0802F8078A9DF000FC6
:100180001F5F1830C9F7BEDF1F910F910895FF92CE
:100190000F931F93F82E00E010E0000FB3DF082B41
:1001A0001F5F1830D1F7FF2011F080E001C081E01F
:1001B0008FDF88E08A95F1F7802F1F910F91FF90D4
:1001C00008951F920F920FB60F9211248F93809172
:1001D0009D008F5F80939D008F910F900FBE0F90B9
:1001E0001F9018951F920F920FB60F9211242F9304
:1001F0003F934F935F936F937F938F939F93EF936F
:10020000FF9386B392B720919D0012BE10929D007D
:1002100084FF48C0222311F4913920F081E08093BB
:100220009C0040C080919C008823E1F1E0919C00FB
:10023000F0E0892F90E0EE0FFF1FEE57FF4F918304
:10024000808380919C008F5F80939C0080919C00B4
:100250008D3041F510929C0040E050E021E030E00C
:1002600061E070E0F901EE0FFF1FEE57FF4F808154
:1002700091818134910568F021503040CB01022EEC
:1002800002C0880F991F0A94E2F72F5F3F4F482B57
:10029000592B2F5F3F4F2D30310521F750939F0091
:1002A00040939E00FF91EF919F918F917F916F916D
:1002B0005F914F913F912F910F900FBE0F901F9024
:1002C00018953ADF80917F00880F52DF8FE650DF6C
:1002D00044DF0895EF92FF920F931F93182F062F7C
:1002E000F42EE22E29DF80917F00880F41DF812FDD
:1002F0003FDF802F3DDF8F2D3BDF8E2D39DF2DDF60
:100300001F910F91FF90EF9008951F93182F14DF06
:1003100080917F00880F2CDF86E62ADF812F28DF7F
:100320001CDF1F910895CDDF8EE660E040E020E005
:10033000D1DF08951F920F920FB60F9211248F9361
:100340009F9380918000909181000496909381000A
:10035000809380009F918F910F900FBE0F901F9000
:1003600018953F924F925F926F927F928F929F92D9
:10037000AF92BF92CF92DF92EF92FF920F931F93B3
:10038000DF93CF93CDB7DEB728970FB6F894DEBFD3
:100390000FBECDBF80E886BD84E086BD80B7846097
:1003A00080BF88B7846088BF89B7846089BF78942C
:1003B000B99AB99A80E690E06DDE80E185BB8BB793
:1003C00080628BBF89B7826089BF10929C001092B7
:1003D0009D0082E083BFC49AA4DE8091800090914A
:1003E00081009093A1008093A000ECE7F2E931979F
:1003F000F1F70091800010918100081B190B812FEB
:1004000055DE802F53DE8FDFC19A00E010E08EE3CF
:10041000E82E89E4F82E8BE690E03CDE8EE669E07B
:1004200049E029E057DFC7010197F1F78EE660E068
:1004300040E020E04FDFC7010197F1F70F5F1F4F4A
:100440000230110541F71092A2008FEF8093A300B4
:1004500082E080937E0080E690EF9093A1008093ED
:10046000A00000D2682F88E64FEF2091A30032DF72
:10047000B7E03B2EADE7CA2ED12C5E010894A11C3B
:10048000B11CF6E07F2EE5E0FE2E74E0672E63E0FF
:10049000562E5FE7E52E42E0442E9924939438E7E8
:1004A000832E80919E0090919F0010929F00109249
:1004B0009E009093A5008093A400009709F409C1C1
:1004C00082599040029718F0FCDE8AE01EDF80918E
:1004D000A4009091A5008539910521F410927E0029
:1004E00022DFE7C08039910561F490927E0080910F
:1004F000A300882311F48092A3008091A2008B5F57
:100500000EC08139910571F490927E008091A30014
:10051000882311F48092A3008091A20085508093DB
:10052000A200C7C08239910551F48091A3008A3F8F
:1005300010F08FEF01C0865F8093A300BAC08339AB
:10054000910549F48091A300853018F41092A3001E
:10055000B0C08A50F1CF8038910519F440927E00E6
:1005600005C08138910551F450927E008091A3001E
:10057000882309F09EC0E092A3009BC082389105B9
:1005800019F460927E0095C08338910531F4F092A1
:100590007E0083E66FEF4FEF39C08438910529F470
:1005A000F0927E0083E660E024C08538910531F446
:1005B000F0927E0083E66FEF40E01CC08638910524
:1005C00039F4F0927E0083E661E141E121E11FC050
:1005D0008738910539F4F0927E0083E660E840E8C0
:1005E00020E815C08838910539F4F0927E0083E642
:1005F0006FEF4FEF2FEF0BC08938910551F47092D8
:100600007E008AE082DE80E760E040E020E062DE9B
:1006100050C027E0873F920709F046C030927E0025
:1006200028EC05C0C6010197F1F72150D1F10091E6
:100630009E0010919F0010929F0010929E00011545
:10064000110581F30930110510F008E010E030E0E9
:1006500014C0C6010197F1F7215009F180919E0065
:1006600090919F0010929F0010929E00009789F336
:10067000F501E30FF11D80833F5F832F90E080172A
:10068000910710F428ECEACF0430110581F48AE2D6
:10069000E2DC89816A814B812C811CDE08C081E209
:1006A000DADC81E2D8DCF0CF885F974011F4109259
:1006B0007E0080917E00FADC8DE690E0EBDC80919C
:1006C000A200F4DC8CE2C7DC8091A300EFDC8AE0BE
:1006D000C2DC80917E00823039F58091800090915B
:1006E00081002091A6003091A700821B930B815AB4
:1006F0009F4008F43FC080918000909181009093CA
:10070000A7008093A600AED08093A20082E790E07D
:10071000C1DC8091A200CADC8CE29DDC8091A30048
:10072000C5DC8AE098DC26C0833011F5809180001A
:10073000909181002091A6003091A700821B930B1D
:100740008D529140D8F180918000909181009093DA
:10075000A7008093A60086D08093A20084E6D5DD12
:1007600088E66091A2004FEF2091A300B3DD26C080
:10077000813011F482E023C0843009F092CE809160
:100780008000909181002091A6003091A700821BEB
:10079000930B8D52914008F484CE8091800090910B
:1007A00081009093A7008093A6008091A3008F3FC3
:1007B00011F08FEF01C080E08093A30084E6A5DDF7
:1007C00088E66091A2004FEF2091A30083DD69CEFF
:1007D000A0E0B0E0EDEEF3E090C0EC01A880B980BD
:1007E000CA80DB80A114B104C104D10441F484E2C5
:1007F000A82E89EDB82E8BE5C82E87E0D82EC6012D
:10080000B5012DE133EF41E050E054D027EA31E467
:1008100040E050E036D07B018C01C601B5012DE1EE
:1008200033EF41E050E046D0CA01B9012CEE34EF7D
:100830004FEF5FEF26D06E0D7F1D801F911F97FF3A
:1008400004C06150704080409048688379838A83F7
:100850009B839B013F77C901CDB7DEB7EAE069C052
:10086000B7DF089589E790E0B3DF0895A0E0B0E036
:100870008093790090937A00A0937B00B0937C00E2
:100880000895FF27EE27BB27AA2760FF04C0A20F09
:10089000B31FE41FF51F220F331F441F551F9695EA
:1008A00087957795679589F70097760771F7CF0158
:1008B000BD01089597FB092E05260ED057FD04D0E3
:1008C0004BD00AD0001C38F45095409530952195B6
:1008D0003F4F4F4F5F4F0895F6F790958095709575
:1008E00061957F4F8F4F9F4F08952F923F924F9268
:1008F0005F926F927F928F929F92AF92BF92CF92B0
:10090000DF92EF92FF920F931F93CF93DF93CDB7B8
:10091000DEB7CA1BDB0B0FB6F894DEBF0FBECDBF30
:1009200009942A88398848885F846E847D848C8401
:100930009B84AA84B984C884DF80EE80FD800C810A
:100940001B81AA81B981CE0FD11D0FB6F894DEBFED
:100950000FBECDBFED010895A1E21A2EAA1BBB1B4D
:10096000FD010DC0AA1FBB1FEE1FFF1FA217B3077B
:10097000E407F50720F0A21BB30BE40BF50B661F91
:10098000771F881F991F1A9469F760957095809555
:1009900090959B01AC01BD01CF010895F894FFCF64
:1009A0000A667265656D5F61320A00210020686227
:0E09B0003A007268623A003200010000000056
:00000001FF
